:020000040800F2
:1000000030410020D919000885070008870700083B
:100010008B0700088F070008930700080000000006
:10002000000000000000000000000000970700082A
:1000300099070008000000009B0700089D070008C2
:10004000F3190008F3190008F3190008F319000860
:10005000F3190008F3190008F3190008F319000850
:10006000F3190008F3190008F3190008F319000840
:10007000F3190008F3190008F3190008F319000830
:10008000F3190008F3190008F3190008F319000820
:10009000F3190008F3190008F3190008F319000810
:1000A000F3190008F3190008F3190008F319000800
:1000B000F3190008F3190008F3190008F3190008F0
:1000C000F3190008F3190008F3190008F3190008E0
:1000D000F31900084D190008F3190008F319000876
:1000E000F3190008F3190008F3190008F3190008C0
:1000F000F3190008F3190008F3190008F3190008B0
:10010000F3190008F3190008F3190008F31900089F
:10011000F3190008F3190008F3190008F31900088F
:100120000F170008F3190008F3190008F319000865
:10013000F3190008F3190008F3190008F31900086F
:10014000F3190008F3190008F3190008F31900085F
:10015000F3190008F3190008F3190008F31900084F
:10016000F3190008F3190008F3190008F31900083F
:10017000F3190008F3190008F3190008F31900082F
:10018000F3190008F319000800F002F800F071F804
:100190000AA090E8000C82448344AAF10107DA45E2
:1001A00001D100F066F8AFF2090EBAE80F0013F0C3
:1001B000010F18BFFB1A43F00103184700050200A6
:1001C00020050200103A24BF78C878C1FAD8520737
:1001D00024BF30C830C144BF04680C6070470000C1
:1001E0000023002400250026103A28BF78C1FBD840
:1001F000520728BF30C148BF0B6070474B1C012B12
:1002000098BF70472DE9F003911C9B08B1F804805A
:10021000B1F802900A8831F802CC8044814402444B
:100220008444D9F80070D8F800601568DCF8004004
:10023000C9F80060C8F80070CCF800501460D9F814
:100240000470D8F804605568DCF80440C9F804600C
:10025000C8F80470CCF80450546008315B1ED5D146
:10026000BDE8F00370471FB504F029FE1FBD10B5AF
:1002700010BD04F0E1FB1146FFF7F5FF00F080F937
:1002800004F013FC03B4FFF7F2FF03BC01F0FEFA25
:100290002DE9F0472DED108B82B005469FEDFE0A4B
:1002A000F0EE40AA9FEDFC0AB0EE40DA9FEDFA0AAC
:1002B000F0EE40DA9FEDF80AB0EE409A9FEDF60AB4
:1002C0008DED010A9FEDF40AB0EE40EA9FEDF20ACF
:1002D0008DED000A9FEDF00AF0EE40EA9FEDEE0A88
:1002E000B0EE40FA9FEDEC0AF0EE40FA002600274F
:1002F000B046B146B246012410E005EB840090ED13
:10030000000AB4EEEA0AF1EE10FA06DD05EB84000D
:1003100090ED000AF0EE40AA2646641CFF2CECDBB0
:10032000012430E0A64200D12CE005EB840090EDE2
:10033000000AB4EECD0AF1EE10FA22DD05EB8400DE
:1003400090ED000A601C05EB8000D0ED000AB4EED1
:10035000E00AF1EE10FA14DD05EB840090ED000ADE
:10036000601E05EB8000D0ED000AB4EEE00AF1EE6D
:1003700010FA06DD05EB840090ED000AB0EE40DADD
:10038000274600BF641CFF2CCCDB012432E0A642D0
:1003900001D0A74200D12CE005EB840090ED000ACB
:1003A000B4EEED0AF1EE10FA22DD05EB840090EDDB
:1003B000000A601C05EB8000D0ED000AB4EEE00AF4
:1003C000F1EE10FA14DD05EB840090ED000A601EDA
:1003D00005EB8000D0ED000AB4EEE00AF1EE10FA71
:1003E00006DD05EB840090ED000AF0EE40DAA04651
:1003F00000BF641CFF2CCADB012434E0A64203D0FA
:10040000A74201D0A04500D12CE005EB840090ED7F
:10041000000AB4EEC90AF1EE10FA22DD05EB840001
:1004200090ED000A601C05EB8000D0ED000AB4EEF0
:10043000E00AF1EE10FA14DD05EB840090ED000AFD
:10044000601E05EB8000D0ED000AB4EEE00AF1EE8C
:1004500010FA06DD05EB840090ED000AB0EE409A3C
:10046000A14600BF641CFF2CC8DB012436E0A64275
:1004700005D0A74203D0A04501D0A14500D12CE072
:1004800005EB840090ED000AB4EEC90AF1EE10FA13
:1004900022DD05EB840090ED000A601C05EB800076
:1004A000D0ED000AB4EEE00AF1EE10FA14DD05EB2F
:1004B000840090ED000A601E05EB8000D0ED000A7C
:1004C000B4EEE00AF1EE10FA06DD05EB840090EDE3
:1004D000000A8DED010AA24600BF641CFF2CC6DB9A
:1004E0009FED6E0ACAEE808AB0EE68EA9FED6B0A55
:1004F000CDEE000ACDED000A9FED680ACDEE800A30
:10050000F0EE60EA9FED650AC9EE000AB0EE60FA0F
:100510009DED010ADFED610A80EE201AF0EE41FA4E
:100520009DED000A20EE000A0EEEAE0A0FEE0F0A55
:100530000FEEAF0A10EE101A084604F04FFC41EC23
:100540001C0BB0EE4C0AF0EE6C0A04F0B7FAB0EEF9
:1005500040BAF0EE60BA51EC1B0B04F0EDFA08EE75
:10056000100AF0EE4E8AC8EE289A9FED4D0A29EE49
:1005700080AAB0EE4A0A02B0BDEC108BBDE8F0874D
:100580000EB5A82001F000F900F0C1FA00204FF4E8
:10059000A073F0220146009000F0D6FB4FF4E1304A
:1005A00001F082F93FA004F0F5F94FF4A06001F0EA
:1005B00033FA01F009F845F21C0001F0C0F89FED94
:1005C000450A454880ED000A90ED000ADFED430A38
:1005D00080EE201A424880ED001A0121414802F0C5
:1005E00063FAC1E000204049086016E09FED2A0A46
:1005F0003E483D49096800EB810080ED000A9FED0F
:10060000260A3B483849096800EB810080ED000A62
:1006100035480068401C3449086033480068B0F52C
:10062000806FE3DC00203049086027E031482E4924
:10063000096830F8110000EE100AB8EE400ADFED4C
:100640002E0A20EE200A2D4880ED000A90ED000AC7
:1006500025480068254901EBC00080ED000A9FEDA8
:100660000E0A214800684000401C01EB800080ED2C
:10067000000A1D480068401C1B4908601A480068B1
:10068000B0F5806FD2DB0123002218491C4803F02B
:1006900070FE4FF4806235E000000000000000436F
:1006A0000000C8424C43442F555341525420496ED8
:1006B000697469616C697A6564A3A1576169746939
:1006C0006E6720666F7220696E7075742E2E2E2EE6
:1006D0002E2E0A0067FF7F450400002000008044A2
:1006E00008000020000400402800002094000020A2
:1006F00094200020E83100206740533A0000002099
:10070000348F000819491A4803F0F0FA1748FFF728
:10071000BFFD184880ED000A00202021CDE900012E
:100720004FF6FF7314A20146029000F049FE20200C
:1007300000214FF6FF730522CDE900100D4890ED22
:10074000000A1E21212000F0B2FE00202021CDE968
:1007500000014FF6FF730AA21E210290872000F0CD
:100760002FFE322001F072F83CE7000094200020B8
:1007700094000020580000204448542049533A0077
:1007800025000000704700BFFEE700BFFEE700BF86
:10079000FEE700BFFEE770477047704770470000F4
:1007A0000CB50020019000907648006840F480303D
:1007B0007449086000BF7348006800F4003000907E
:1007C0000198401C0190009818B90198B0F5A04F0D
:1007D000F1D16C48006800F4003010B101200090A5
:1007E00001E0002000900098012846D16548403083
:1007F000006840F0805063494031086062480068FA
:1008000040F44040604908605E48083000685D4937
:10081000083108600846006840F400400860084657
:10082000006840F4A05008605848091F0860081F7D
:10083000006840F08070091F086000BF51480068E0
:1008400000F000700028F9D040F2057050490860AF
:100850004C480830006820F003004A49083108601D
:100860000846006840F00200086000BF45480830B4
:10087000006800F00C000828F8D10CBD10B5454800
:10088000006840F47000434908603E48006840F04A
:1008900001003C49086000203A49083108603948A5
:1008A00000683D490840374908603C48091D086018
:1008B000081F006820F48020091F086000203149CB
:1008C0000C310860FFF76CFF4FF000603149803950
:1008D000086010BD70B50020002202230024022110
:1008E000284D08352D6805F00C0020B1042806D0ED
:1008F000082834D107E02A4D2A4E356033E02A4DCE
:10090000284E35602FE01F4D2D1D2D68C5F38054F6
:100910001C4D2D1D2D6805F03F0154B1224DB5FB36
:10092000F1F5184E361D3668C6F3881605FB06F23B
:1009300009E01B4DB5FBF1F5124E361D3668C6F3C6
:10094000881605FB06F20F4D2D1D2D68C5F30145D8
:100950006D1C6B00B2FBF3F5124E356003E0104DD9
:10096000104E356000BF00BF064D08352D68C5F339
:1009700003150E4E705D0B4D2D68C540094E356058
:1009800070BD00000038024000700040085440076D
:10099000003C024088ED00E0FFFFF6FE103000242E
:1009A0000024F4005C00002000127A0060000020A7
:1009B0001CB501211F2001F0C3FB02200090012083
:1009C0008DF8040000208DF8060003208DF8050046
:1009D00001208DF807006946D84801F013F902217B
:1009E000D64801F08BF948F23200009001208DF8D2
:1009F000040000208DF8060003208DF8050001207A
:100A00008DF807006946CE4801F0FCF848F2320143
:100A1000CB4801F073F94FF4A060009001208DF8ED
:100A2000040000208DF8060003208DF80500012049
:100A30008DF807006946C34801F0E4F84FF4A0615F
:100A4000C04801F05BF91CBD70B504460221BC48EA
:100A500001F056F9002517E00221B84801F050F9DD
:100A600004F0800020B12021B54801F047F903E0EF
:100A70002021B34801F044F90221B04801F03EF9C9
:100A80006006040E681CC5B2082DE5DB0221AC48E7
:100A900001F034F970BD10B504462046FFF7D4FFCD
:100AA00010BD10B504462012FFF7CEFFE0B2FFF7ED
:100AB000CBFF10BD10B504464FF40041A04801F033
:100AC0001FF92046FFF7C0FF4FF400419C4801F09A
:100AD00015F910BD2DE9F04107460C4615461E4696
:100AE0002A20FFF7E7FF3846FFF7DBFF2846FFF72E
:100AF000D8FF2B20FFF7DEFF2046FFF7D2FF30465E
:100B0000FFF7CFFF2C20FFF7D5FFBDE8F08110B530
:100B1000FFF74EFF10218A4801F0F2F8642000F040
:100B200095FE1021864801F0E9F8642000F08EFE61
:100B30004FF48071834801F0E1F8642000F086FEF4
:100B40001120FFF7B7FF782000F080FECF20FFF7DD
:100B5000B1FF0020FFF79FFFC120FFF79CFF30206F
:100B6000FFF799FFED20FFF7A5FF6420FFF793FF44
:100B70000320FFF790FF1220FFF78DFF8120FFF782
:100B80008AFFE820FFF796FF8520FFF784FF00200B
:100B9000FFF781FF7920FFF77EFFCB20FFF78AFF69
:100BA0003920FFF778FF2C20FFF775FF0020FFF7B3
:100BB00072FF3420FFF76FFF0220FFF76CFFF72072
:100BC000FFF778FF2020FFF766FFEA20FFF772FFAC
:100BD0000020FFF760FF0020FFF75DFFC020FFF758
:100BE00069FF1D20FFF757FFC120FFF763FF1220A9
:100BF000FFF751FFC520FFF75DFF3320FFF74BFFE5
:100C00003F20FFF748FFC720FFF754FF9220FFF770
:100C100042FF3A20FFF74EFF5520FFF73CFF3620FA
:100C2000FFF748FF0820FFF736FFB120FFF742FF2C
:100C30000020FFF730FF1220FFF72DFFB620FFF74F
:100C400039FF0A20FFF727FFA220FFF724FF4420E7
:100C5000FFF730FF0220FFF71EFFF220FFF72AFF09
:100C60000020FFF718FF2620FFF724FF0120FFF7E1
:100C700012FFE020FFF71EFF0F20FFF70CFF2220DE
:100C8000FFF709FF1C20FFF706FF1B20FFF703FFFC
:100C90000820FFF700FF0F20FFF7FDFE4820FFF7B9
:100CA000FAFEB820FFF7F7FE3420FFF7F4FE052028
:100CB000FFF7F1FE0C20FFF7EEFE0920FFF7EBFE39
:100CC0000F20FFF7E8FE0720FFF7E5FE0020FFF703
:100CD000E2FEE120FFF7EEFE0020FFF7DCFE23201E
:100CE000FFF7D9FE2420FFF7D6FE0720FFF7D3FE3B
:100CF0001020FFF7D0FE0720FFF7CDFE3820FFF7CA
:100D0000CAFE4720FFF7C7FE4B20FFF7C4FE0A20AC
:100D1000FFF7C1FE1320FFF7BEFE0620FFF7BBFE64
:100D20003020FFF7B8FE3820FFF7B5FE0F20FFF7A1
:100D3000B2FE2920FFF7BEFE10BD000000040240F5
:100D4000000C0240001002402DE9F04706460F4615
:100D500014461D46DDF820A0681E83B2601E82B2D4
:100D600039463046FFF7B6FEB8460EE0B14606E01B
:100D70005046FFF796FE09F101001FFA80F9A145E0
:100D8000F6DB08F101001FFA80F8A845EEDBBDE8AC
:100D9000F08770B504460D4616462B462246294676
:100DA0002046FFF797FE3046FFF77BFE70BD2DE92A
:100DB000FF4F85B081468A460020039083460798FE
:100DC000A0EB09040898A0EB0A06CDF80890CDF82E
:100DD00004A0002C01DD012705E00CB9002702E08A
:100DE0004FF0FF376442002E02DD4FF0010806E0AD
:100DF00016B94FF0000802E04FF0FF386642B442E7
:100E000001DD254600E03546002004901EE0019AF1
:100E100091B2029A90B2129AFFF7BBFF0398204456
:100E20000390B3440398A84205DD0398401B039048
:100E3000029838440290AB4504DDABEB050B0198FA
:100E4000404401900498401C80B20490691C0498AE
:100E50008842DCDB09B0BDE8F08F2DE9F843054698
:100E60000E4617469846089C33463A463146284671
:100E70000094FFF79CFF43462A46314628460094DB
:100E8000FFF795FF43463A46414628460094FFF750
:100E90008EFF43463A46314638460094FFF787FFB7
:100EA000BDE8F8832DE9F04706460F46904699467F
:100EB0000025444641E07A1B91B2321B90B24A466B
:100EC000FFF767FF7A1B91B2321990B24A46FFF7DB
:100ED00060FF3A1991B2721B90B24A46FFF759FF70
:100EE0003A1B91B2721B90B24A46FFF752FF7A1931
:100EF00091B2321990B24A46FFF74BFF3A1B91B2BA
:100F0000721990B24A46FFF744FF3A1991B272192A
:100F100090B24A46FFF73DFF7A1991B2321B90B268
:100F20004A46FFF736FF6D1C05FB05F004FB040184
:100F300008FB08F0814200DD641EA542BBDDBDE870
:100F4000F0872DE9FE4F0646894692469B460D9C4A
:100F500000962046E11704EB5171C910614389B234
:100F6000019105200290002565E005EB8510F94907
:100F700011F810009AF80010884259D105EB85103D
:100F8000F44901EB400040789AF8011088424FD1B3
:100F900009EB0400401E83B23019401E82B249465C
:100FA0003046FFF797FD00273FE04FF0000836E09E
:100FB0000E9898B905EB8510E64901EB4000801CBE
:100FC000C05D012101FA08F1084018B15846FFF749
:100FD00068FD20E00C98FFF764FD1CE005EB851030
:100FE000DC4901EB4000801CC05D012101FA08F1E1
:100FF000084020B15A4649463046FFF7CAFE701CE9
:1010000086B20098301AA04205D1009E09F1010075
:101010001FFA80F906E008F1010000F0FF08B8F1BE
:10102000080FC5DB00BF781CC7B201988742BCDB44
:1010300000BF681C85B20298854296DBBDE8FE8F32
:101040002DE9FE4F0646894692469B460D9C00962A
:101050002046E11704EB5171C910614389B2019137
:101060000520029000256DE005EB850000EB4510A2
:10107000B94911F810009AF8001088425FD105EBC9
:10108000850000EB4510B44901EB400040789AF828
:101090000110884253D109EB0400401E83B230197D
:1010A000401E82B249463046FFF714FD002743E058
:1010B0004FF000083AE00E98A8B905EB850000EB68
:1010C0004510A54901EB4000801CC05D012101FADB
:1010D00008F1084018B15846FFF7E3FC22E00C98ED
:1010E000FFF7DFFC1EE005EB850000EB45109A4999
:1010F00001EB4000801CC05D012101FA08F10840AD
:1011000020B15A4649463046FFF743FE701C86B26E
:101110000098301AA04205D1009E09F101001FFA83
:1011200080F906E008F1010000F0FF08B8F1080FAF
:10113000C1DB00BF781CC7B201988742B8DB00BF93
:10114000681C85B2029885428EDBBDE8FE8F2DE9D2
:10115000FE4F0646894692469B460D9C00962046C9
:10116000E11704EB5171C910614389B201910A2062
:101170000290002565E005EB0510784911F8100094
:101180009AF80010884259D105EB0510734901EB1C
:10119000400040789AF8011088424FD109EB0400D2
:1011A000401E83B23019401E82B249463046FFF7D6
:1011B00091FC00273FE04FF0000836E00E9898B908
:1011C00005EB0510654901EB4000801CC05D012165
:1011D00001FA08F1084018B15846FFF762FC20E018
:1011E0000C98FFF75EFC1CE005EB05105B4901EB7A
:1011F0004000801CC05D012101FA08F1084020B1C7
:101200005A4649463046FFF7C4FD701C86B2009826
:10121000301AA04205D1009E09F101001FFA80F9A1
:1012200006E008F1010000F0FF08B8F1080FC5DB87
:1012300000BF781CC7B201988742BCDB00BF681CA6
:1012400085B20298854296DBBDE8FE8F2DE9FE4F00
:101250008046894615469A46DDE90D470C9E2AE0F0
:10126000102C09D153462A4649464046CDE901474C
:101270000096FFF76CFF19E0182C09D153462A4657
:1012800049464046CDE901470096FFF7D9FE0DE0FB
:10129000202C09D153462A4649464046CDE901470C
:1012A0000096FFF74EFE01E0BDE8FE8FAD1C08EB97
:1012B00004001FFA80F828780028D1D100BFF3E796
:1012C0002DE9FF4F83B005468A461746119CAB4671
:1012D000204604EBD071C1F347063046F11706EB08
:1012E0005171C910614389B20191A7F12000C7B2C1
:1012F0000AEB0400401E83B2A819401E82B2514678
:101300002846FFF7E7FB4FF0000954E0102C06D108
:10131000134800EB071010F8090002900BE0202C96
:1013200006D1104800EB871010F80900029002E087
:1013300007B0BDE8F08F4FF0000834E01298B8B95C
:10134000012000FA08F00299084068B10698FFF7FA
:10135000A8FB24E0DAAF000868AE000814AD00086E
:10136000648F0008549500081098FFF79AFB16E068
:10137000012000FA08F00299084020B151462846A1
:10138000069AFFF706FD681C85B2A5EB0B00B0427C
:1013900005D15D460AF101001FFA80FA06E008F166
:1013A000010000F0FF08B8F1080FC7DB00BF09F12A
:1013B00001001FFA80F901988145A7DB00BFB7E75C
:1013C0002DE9FE4F06460F4614469846DDE90D5AB4
:1013D000DDF8309010E0CDE9015ACDF80090227888
:1013E000434639463046FFF76BFF284605EBD07180
:1013F00006EB61018EB2641C20780028EBD1BDE8B9
:10140000FE8F10B50246012000E050430B1EA1F1F3
:101410000104E1B2F9D110BD2DE9FF4F85B00746B7
:1014200091461D46DDE913A600200490304606EBE8
:10143000D071C1F3470B002434E0281B401EC1B219
:101440000A20FFF7DEFFB9FBF0F00A21B0FBF1F252
:1014500001FB12080498A0B9681EA04211DDB8F182
:10146000000F0CD1002004FB0B71CDE900A6029007
:1014700088B22022129B0699FFF722FF10E001207C
:101480000490002008F13001CAB204FB0B71CDE9D1
:1014900000A6029088B2129B0699FFF711FF00BFC9
:1014A000601CC4B2AC42C8DB09B0BDE8F08F2DE9C6
:1014B000FF4F2DED020B2DED028B83B00746B0EEF2
:1014C000408A1446DDE91486304606EBD071C1F33C
:1014D000470A9FED3C0A28EE000ABCEEC00A10EE57
:1014E000100A1FFA80FB002530E0601B401EC1B2CD
:1014F0000A20FFF786FFBBFBF0F00A21B0FBF1F2F8
:1015000001FB1209A01EA84210D10020A11E01FB60
:101510000A71CDE90086029088B22E220A9B0899B2
:10152000FFF7CEFE681CC5B2601CC4B2002009F1F2
:101530003001CAB205FB0A71CDE90086029088B27B
:101540000A9B0899FFF7BCFE681CC5B2A542CCDB1C
:1015500003B0BDEC028B06B0BDE8F08F2DE9F05F63
:101560000746884615461E46DDF82890002408EBFD
:101570000600401E83B27819401E82B241463846AA
:10158000FFF7A8FAA24619E04FF0000B10E019F897
:101590001400FFF780FA012101EB440119F8010062
:1015A000FFF779FA601C84B20BF101001FFA80FB8F
:1015B000B345ECDB0AF101001FFA80FAAA45E3DB30
:1015C000BDE8F09F0000C84200B59DB0012108466B
:1015D00000F0B6FD0121080200F00CFE0121880593
:1015E00000F0AEFD614801F07BFF00BF5F4802F0F4
:1015F000A0F80028FAD102905D4803905D4804905D
:10160000002005904FF480600690002007904FF472
:1016100080600890400009900A90C0100B90000272
:101620000C9000200D9003200E9000200F90109041
:10163000012210214D4802F0BCF802A94B4801F0EC
:10164000F1FF38208DF8040001208DF805008DF899
:1016500006008DF8070001A800F0E3F960201B9058
:1016600003208DF8700000208DF873001BA94248FC
:1016700000F0C8FA0121080200F011FE00214FF429
:10168000807000F00CFE002017901A9019904FF413
:101690008030189017A802F031F900201190012035
:1016A0008DF8480000208DF849004FF080501390CD
:1016B000401014900020159002208DF8580011A9B8
:1016C0002B484C3802F0EBF8012129484C3802F045
:1016D00017FA00230122052125484C3802F065F94C
:1016E00000230222062122484C3802F05EF9012133
:1016F0001F484C3802F0F9F901211D484C3802F01E
:1017000014F90121194801F0C7FF1DB000BD10B543
:1017100000211A4801F0C8F91949144802F035F8B7
:10172000012018490870002401E0601C84B2B4F55F
:10173000806FFADB0121114801F0B6F910BD3EB50A
:1017400004460121022000F044FD01940020ADF880
:101750000000ADF80800ADF802006946074801F046
:101760001AF92021054801F06FFE3EBD10640240C9
:101770004C200140E83100200000024000040040FD
:10178000200000107000002010B504466FF0040027
:1017900000F094F9E11704EB5171C1F3C701394A24
:1017A00011701046007800EB4001C1EBC0104FF6FD
:1017B000FF7101EAC0003449088010BD0146314A7A
:1017C00012784A434FF0E0235A6100229A611A4688
:1017D000126942F001021A6100BF4FF0E022106965
:1017E00000F001021AB100F48032002AF5D04FF067
:1017F000E022126922F001024FF0E0231A61002278
:101800009A6170470146204A12884A434FF0E0230C
:101810005A6100229A611A46126942F001021A6165
:1018200000BF4FF0E022106900F001021AB100F48D
:101830008032002AF5D04FF0E022126922F0010236
:101840004FF0E0231A6100229A61704770B5044698
:101850004FF4077094FBF0F0C6B24FF4077094FB9E
:10186000F0F100FB114085B205E04FF40770FFF77F
:10187000C9FF701EC6B2002EF7D115B12846FFF77A
:10188000C1FF70BD7600002078000020014600BF37
:10189000704700BF4C4A128802F04002002AF9D07B
:1018A000C2B2494B9A80704710B588B004460121F6
:1018B000084600F045FC0121102000F09BFC0722A7
:1018C0000921424800F029FA07220A213F4800F086
:1018D00024FA4FF4C060069002208DF81C008DF8A9
:1018E0001D0000208DF81E0001208DF81F0006A9A4
:1018F000364800F087F902940020ADF80C00ADF8EE
:101900000E00ADF81000ADF814000C20ADF8120078
:1019100002A92D4800F0CFFD01212B4800F053FE15
:10192000012240F22551284800F003FF25208DF8C0
:10193000040003208DF805008DF8060001208DF8C5
:10194000070001A800F06DF808B010BD10B540F216
:1019500025511D4800F028FF10B31B4800F062FE1F
:10196000C4B21B48008800F40040C8B91848008879
:1019700000F4804060B10A2C03D000201449088094
:1019800020E01348008840F400401149088019E025
:101990000D2C06D10E48008840F480400C49088088
:1019A00010E00B480088C0F30D000A490C540848A9
:1019B0000088401C0649088008460088C72801DDC9
:1019C0000020088010BD000000100140000002400F
:1019D00080000020083A0020094880470948004755
:1019E000FEE7FEE7FEE7FEE7FEE7FEE7FEE7FEE7CF
:1019F000FEE7FEE704480549054A064B704700002C
:101A00007D08000889010008303B0020304100209B
:101A1000303D0020303D002032490143324A116000
:101A2000704770B5002100230F22C4781CB32E4CE0
:101A3000246804F4E064C4F5E064C4F30721C1F150
:101A40000404E3B20A4144789C40E1B28478144033
:101A500021430C07210E254C05786155047804F0CC
:101A60001F050124AC4005786D11AD0005F1E0259E
:101A7000C5F8004109E0047804F01F050124AC40DA
:101A80001B4D0678761145F8264070BD194A0A406C
:101A90000243154B1B1F1A60704739B1124A121DC1
:101AA00012680243104B1B1D1A6006E00E4A121DFD
:101AB000126882430C4B1B1D1A607047042808D122
:101AC0004FF0E021096941F004014FF0E02211617B
:101AD00007E04FF0E021096921F004014FF0E02216
:101AE000116170470000FA050CED00E000E400E031
:101AF00080E100E080FFFF1F10B504469848844253
:101B000008D10121084600F086FB0021012000F0E9
:101B100082FB76E09348844208D10121022000F044
:101B20007AFB0021022000F076FB6AE08E488442B6
:101B300008D10121042000F06EFB0021042000F0F8
:101B40006AFB5EE08948844208D10121082000F048
:101B500062FB0021082000F05EFB52E084488442D2
:101B600008D10121102000F056FB0021102000F0C8
:101B700052FB46E07F48844208D10121202000F03A
:101B80004AFB0021202000F046FB3AE07A488442DC
:101B900008D10121402000F03EFB0021402000F050
:101BA0003AFB2EE07548844208D10121802000F0E4
:101BB00032FB0021802000F02EFB22E0704884429E
:101BC00008D10121801500F026FB0021A01500F0AE
:101BD00022FB16E06B48844208D10121401500F039
:101BE0001AFB0021601500F016FB0AE066488442EB
:101BF00007D10121001500F00EFB0021201500F097
:101C00000AFB10BDF0B50A4600210023002400BFE6
:101C10003DE0012505FA01F3156805EA03049C423D
:101C200034D105684F000326BE40B54305601579E1
:101C30004E00B5400668354305601579012D02D088
:101C40001579022D16D185684F000326BE40B54395
:101C5000856055794E00B540866835438560456896
:101C600001268E40B5434560456896798E40B6B2F0
:101C700035434560C5684F000326BE40B543C56087
:101C8000D5794E00B540C6683543C560491C10295A
:101C9000BFD3F0BD4FF6FF710160002101714171AA
:101CA0008171C171704708B54FF480320092009A7B
:101CB0000A430092009AC261C161009AC261C2697E
:101CC0000092C269009208BD0246002013690B40D1
:101CD0000BB1012000E0002070470146086980B286
:101CE00070470246002053690B400BB1012000E011
:101CF000002070470146486980B2704701837047F1
:101D0000418370470AB1018300E04183704741611C
:101D1000704742694A4042617047F0B50023002491
:101D20004D07ED0E02FA05F3CE1000F1200555F82F
:101D300026504E07F70E0F26BE40B543CF1000F1D8
:101D4000200646F82750CE1000F1200555F8265001
:101D500045EA0304CE1000F1200545F82640F0BD09
:101D6000000002400004024000080240000C024053
:101D7000001002400014024000180240001C024003
:101D8000002002400024024000280240F948006878
:101D900040F00100F74908600020F649083108606A
:101DA000F4480068F4490840F2490860F348091D06
:101DB0000860F348EF4984310860F0481038091D85
:101DC0000860EC48006820F48020EA4908600020A0
:101DD000E8490C310860E7498C3108607047002100
:101DE000E44A921C117011460870704710B5014604
:101DF0000022002300204A11012A02D1DD4C236871
:101E000008E0022A03D1DB4C7034236802E0D94C8D
:101E10007434236801F01F02012494401C400CB16B
:101E2000012000E0002010BD38B500200090002403
:101E3000002500BF3120FFF7D9FF05460098401C60
:101E400000900098B0F5A04F01D0002DF2D03120C5
:101E5000FFF7CCFF08B1012400E00024204638BD84
:101E600001460020C34A106820F0F80040EAC10093
:101E700010607047C349086070470021BD4A703246
:101E800011701170012802D004280AD104E0012148
:101E9000B84A7032117005E00521B64A70321170EF
:101EA00000E000BF00BF7047B7490860704770B5D9
:101EB000049C41EA82150126C6EB530645EA064515
:101EC000054345EA0465AB4E361D356070BDAD492E
:101ED00008667047820142EA0172A64B84331A6099
:101EE0007047A8498866704710B5830143EA0163CB
:101EF00043EA02739F4C8834236010BDA1490867F0
:101F00007047A049C864704702460020994B0833C7
:101F1000186820F0EC6042EA01031843954B08333F
:101F20001860704702460020924B0833186820F072
:101F3000784042EA010318438E4B0833186070471B
:101F4000014600208B4A0832106820F00300084345
:101F50001060704787480830006800F00C00704738
:101F600001460020834A0832106820F0F000084340
:101F700010607047014600207E4A0832106820F445
:101F8000E05008431060704701460020794A08324B
:101F9000106820F4604040EAC10010607047F0B55E
:101FA000002100220024022500260223714F083759
:101FB0003F6807F00C0121B1042905D0082937D169
:101FC00005E0724F076036E0714F076033E0694FFC
:101FD0003F1D3F68C7F38056664F3F1D3F6807F0BF
:101FE0003F036EB16A4FB7FBF3F7DFF888C10CF11E
:101FF000040CDCF800C0CCF3881C07FB0CF40CE0EC
:10200000624FB7FBF3F7DFF86CC10CF1040CDCF89E
:1020100000C0CCF3881C07FB0CF4564F3F1D3F68F3
:10202000C7F301477F1C7D00B4FBF5F7076002E0B2
:10203000564F076000BF00BF4E4F08373F6807F09C
:10204000F0010909534F7A5C0768D7404760494F50
:1020500008373F6807F4E051890A4E4F7A5C4768B9
:10206000D7408760434F08373F6807F46041490B0A
:10207000484F7A5C4768D740C760F0BD002100F444
:102080004072B2F5407F0AD13A4A0832116821F411
:10209000F811414A02401143364A08321160354A6C
:1020A00070321268C0F30B031A43324B70331A605C
:1020B00070473549443908607047334940390860F2
:1020C000704736490860704701460020294A8C3223
:1020D000106820F01F004A1E1043264A8C32106000
:1020E000704701460020234A8C32106820F4F850D3
:1020F0004A1E40EA02201F4A8C3210607047014697
:1021000000201C4A8C32106820F4401008431060F4
:10211000704701460020174A8C32106820F44000B6
:1021200008431060704701460020124A8C32106844
:1021300020F4403008431060704719490860704728
:1021400039B10C4A3032126802430A4B30331A60FC
:1021500006E0084A303212688243064B30331A6078
:102160007047F9B1034A343212680243014B3433E9
:102170001A601CE000380240FFFFF6EA103000242D
:102180000030002000004742800E47420024F40047
:1021900000127A0082000020FFFCFF0F5C01474222
:1021A000E01147428F4A126882438E4B1A60704793
:1021B00039B18C4A121D126802438A4B1B1D1A60EA
:1021C00006E0884A121D12688243864B1B1D1A6066
:1021D000704739B1834A0C3212680243814B0C3389
:1021E0001A6006E07F4A0C32126882437D4B0C3342
:1021F0001A60704739B17B4A103212680243794B3A
:1022000010331A6006E0774A103212688243754B29
:1022100010331A60704739B1724A243A1268024387
:10222000704B243B1A6006E06E4A243A12688243DF
:102230006C4B243B1A60704739B16A4A203A1268E5
:102240000243684B203B1A6006E0664A203A126857
:102250008243644B203B1A60704739B1614A1C3A93
:10226000126802435F4B1C3B1A6006E05D4A1C3A51
:10227000126882435B4B1C3B1A60704739B1594A64
:10228000143A12680243574B143B1A6006E0554A51
:10229000143A12688243534B143B1A60704739B1A9
:1022A000504A103A126802434E4B103B1A6006E047
:1022B0004C4A103A126882434A4B103B1A607047EE
:1022C00039B1484A1C3212680243464B1C331A602B
:1022D00006E0444A1C3212688243424B1C331A60A7
:1022E000704739B13F4A2032126802433D4B2033D8
:1022F0001A6006E03B4A203212688243394B203391
:102300001A60704739B1374A243212680243354B9C
:1023100024331A6006E0334A243212688243314B78
:1023200024331A60704739B12E4A2C3212680243A6
:102330002C4B2C331A6006E02A4A2C321268824356
:10234000284B2C331A60704739B1264A3032126854
:102350000243244B30331A6006E0224A30321268BE
:102360008243204B30331A607047012808D11D4941
:102370003C31096841F008011A4A3C32116007E01B
:1023800018493C31096821F00801164A3C321160B5
:10239000704739B1134A273A12780243114B273B51
:1023A0001A7006E00F4A273A127882430D4B273BFA
:1023B0001A7070470B484030006840F0807009493F
:1023C00040310860704701460020064A283A1268EA
:1023D0000A400AB1012000E0002070470149263977
:1023E000087070473438024010B50446FA488442F9
:1023F00008D101211020FFF752FF00211020FFF724
:102400004EFF57E0F548844209D101214804FFF707
:1024100035FF00214FF40030FFF730FF4AE0F0486D
:10242000844209D101218804FFF728FF00214FF4DD
:102430008020FFF723FF3DE0EA48844209D10121D3
:10244000C804FFF71BFF00214FF40020FFF716FF21
:1024500030E0E548844209D101210805FFF70EFF6D
:1024600000214FF48010FFF709FF23E0DF4884428A
:1024700008D101212020FFF712FF00212020FFF7C3
:102480000EFF17E0DA48844209D101218807FFF7DF
:10249000F5FE00214FF08040FFF7F0FE0AE0D5483E
:1024A000844207D101214005FFF7E8FE00216005C5
:1024B000FFF7E4FE10BD2DE9FF4705460E46002458
:1024C000A14600BFA046B08900B100BF2C8A24F409
:1024D0004054F08804432C82AC8941F20C60844360
:1024E000B08831890843718908430443AC81AC8AC0
:1024F00024F44074B0890443AC826846FFF74FFD72
:10250000B548854202D0B948854202D1DDF80C9029
:1025100001E0DDF80890A88900F4004040B109EB23
:10252000C90000EB091031684900B0FBF1F707E082
:1025300009EBC90000EB091031688900B0FBF1F725
:102540006420B7FBF0F004012009642101FB10783E
:10255000A88900F4004040B1322000EBC800B0FB75
:10256000F1F000F00700044308E0322000EB08100F
:102570006421B0FBF1F000F00F0004432C81BDE8B2
:10258000FF874FF41651016000218180C1800181D5
:102590000C21418100218181704710B50246002045
:1025A000108A20F470600B884C8823438C88234366
:1025B000CC8823431843108210BD00210180418044
:1025C0008180C180704721B1828942F400528281AA
:1025D00004E082894DF6FF731A4082817047028BB6
:1025E00002F47F420283028B0A430283704721B1C7
:1025F000828942F40042828103E08289C2F30E02A2
:102600008281704721B1828A42F40062828204E0B2
:10261000828A4FF2FF731A4082827047C1F3080228
:102620008280704701468888C0F308007047028A9C
:102630004FF6F0731A400282028A0A430282704700
:1026400021B1828942F00202828104E082894FF640
:10265000FD731A408281704782894FF2FF731A40DE
:10266000828182890A4382817047028A4FF6DF7332
:102670001A400282028A0A430282704721B1028A0A
:1026800042F48042028204E0028A4BF6FF731A4051
:1026900002827047818941F001018181704721B137
:1026A000828A42F00802828204E0828A4FF6F7733F
:1026B0001A4082827047028BD2B20283028B42EAB6
:1026C00001220283704721B1828A42F02002828275
:1026D00004E0828A4FF6DF731A408282704721B18C
:1026E000828A42F01002828204E0828A4FF6EF73FF
:1026F0001A4082827047828A4FF6FB731A408282A8
:10270000828A0A438282704721B1828A42F00202A1
:10271000828204E0828A4FF6FD731A4082827047FB
:102720001AB1838A0B43838202E0838A8B438382BC
:102730007047F0B50346002400260025002040F62F
:102740006A17B94200D100BF1846C1F3421401F024
:102750001F06012707FA06F5012C01D10C3004E011
:10276000022C01D1103000E014301AB107682F4359
:10277000076002E00768AF430760F0BD0246002033
:10278000B1F5007F00D100BF13880B400BB10120D1
:1027900000E00020704701F40072B2F5007F00D124
:1027A00000BFCA430280704770B502460024002370
:1027B0000025002040F66A16B14200D100BFC1F3E7
:1027C000421501F01F03012606FA03F3012D13D170
:1027D0009689334017E0000000100140004400409B
:1027E00000480040004C00400050004000140140F0
:1027F00000780040007C0040022D02D1168A334050
:1028000001E0968A33400C12012606FA04F4168879
:10281000344013B10CB1012000E0002070BD10B5B0
:102820000022002340F66A14A14200D100BF0A1220
:1028300001249440A3B2DC43048010BD10B50446CB
:10284000FE48844208D101210846FFF728FD0021F7
:102850000120FFF724FD9DE0B4F1804F08D1012154
:102860000846FFF70BFD00210120FFF707FD91E06F
:10287000F348844208D101210220FFF7FFFC002128
:102880000220FFF7FBFC85E0EE48844208D10121DD
:102890000420FFF7F3FC00210420FFF7EFFC79E0B0
:1028A000E948844208D101210820FFF7E7FC002114
:1028B0000820FFF7E3FC6DE0E448844208D10121E1
:1028C0001020FFF7DBFC00211020FFF7D7FC61E0B0
:1028D000DF48844208D101212020FFF7CFFC0021EE
:1028E0002020FFF7CBFC55E0DA48844208D10121D3
:1028F0000220FFF7D4FC00210220FFF7D0FC49E0C2
:10290000D548844209D101210804FFF7C8FC002101
:102910004FF48030FFF7C3FC3CE0D048844209D13B
:1029200001214804FFF7BBFC00214FF40030FFF702
:10293000B6FC2FE0CA48844209D101218804FFF780
:10294000AEFC00214FF48020FFF7A9FC22E0C5482F
:10295000844208D101214020FFF790FC0021402053
:10296000FFF78CFC16E0C048844208D1012180208A
:10297000FFF784FC00218020FFF780FC0AE0BB48C1
:10298000844207D101218015FFF778FC0021A015B2
:10299000FFF774FC10BD00220288A84B98420ED0AD
:1029A000AC4B98420BD0B0F1804F08D0A44B98426A
:1029B00005D0A44B984202D0A34B984204D14FF6C5
:1029C0008F731A404B881A43A04B984207D0A04BF4
:1029D000984204D04FF6FF431A400B891A430280F5
:1029E0004B68C3620B880385944B984202D0994B85
:1029F000984201D18B7A03860123838270474FF07E
:102A0000FF31416000210180018141808172704766
:102A10000185828270470A46002101884FF68F7334
:102A2000194011430180704741627047C16270478D
:102A30000146486A70470146088D704721B10288F7
:102A400042F00202028004E002884FF6FD731A4051
:102A50000280704721B1028842F00402028004E043
:102A600002884FF6FB731A400280704721B102883A
:102A700042F08002028004E002884FF67F731A4021
:102A80000280704702884FF6F7731A40028002886E
:102A90000A430280704702884FF6FF431A400280C3
:102AA00002880A430280704721B1028842F0010285
:102AB000028004E002884FF6FE731A4002807047DD
:102AC00070B5002400220023058C4FF6FE763540B9
:102AD0000584028C8388048B4FF68F752C40B51EBD
:102AE0002C400D882C43751E2A408D892A434D8821
:102AF0002A43524DA84202D0564DA84213D14FF658
:102B0000F7752A40CD892A434FF6FB752A408D88F8
:102B10002A434FF6FF652B404FF6FF552B400D8A99
:102B20002B434D8A2B43838004838D684563028445
:102B300070BD70B5002400220023058C4FF6EF769F
:102B400035400584028C8388048B48F6FF752C4041
:102B50004FF6FF452C400D884FF6FF7606EA052517
:102B60002C434FF6DF752A408D8906EA05152A4366
:102B70004D8806EA05152A43304DA84202D0354D4E
:102B8000A8421DD14FF67F752A40CD894FF6FF76BA
:102B900006EA05152A434FF6BF752A408D8806EAD6
:102BA00005152A434FF6FF352B404FF2FF752B409A
:102BB0000D8A06EA85052B434D8A06EA85052B43D7
:102BC000838004838D688563028470BD70B50024A2
:102BD00000220023058C4FF6FF6635400584028CE9
:102BE0008388848B4FF68F752C404FF6FC752C40F4
:102BF0000D882C434FF6FF552A408D894FF6FF76FE
:102C000006EA05252A434D8806EA05252A430B4D89
:102C1000A84202D00F4DA84238D14FF2FF752A408A
:102C2000CD894FF6FF7606EA05252A434FF6FF3594
:102C30002A408D8806EA05252A4319E00000014054
:102C40000004004000080040000C0040001000405C
:102C500000140040000401400040014000440140D5
:102C60000048014000180040001C004000200040C7
:102C70004EF6FF752B404DF6FF752B400D8A06EA88
:102C800005152B434D8A06EA05152B438380848363
:102C90008D68C563028470BD70B5002200230024D6
:102CA000058C4EF6FF7635400584038C8488828B34
:102CB00048F6FF752A404FF6FF452A400D884FF62B
:102CC000FF7606EA05252A434DF6FF752B408D89D0
:102CD00006EA05352B434D8806EA05352B43FE4DA4
:102CE000A84202D0FD4DA84208D14BF6FF752C40FA
:102CF0000D8A4FF6FF7606EA85152C438480828381
:102D00008D680564038470BD00210180418081804D
:102D100081608181C18101824182704770B5034623
:102D2000002000241846183001258D40ACB21D8CBF
:102D3000A5431D8409B108290AD100EB610005688B
:102D40004FF68F76354005600568154305600FE046
:102D50000D1FC5F34E052844056848F6FF7635403B
:102D6000056005684FF6FF7606EA022635430560E2
:102D700070BD4163704781637047C16370470164F0
:102D800070470A460021018B4FF68F73194011439B
:102D9000018370470A460021018B48F6FF731940F2
:102DA0004FF6FF7303EA02231943018370470A4673
:102DB0000021818B4FF68F73194011438183704737
:102DC0000A460021818B48F6FF7319404FF6FF73C6
:102DD00003EA02231943818370470A460021018BCD
:102DE0004FF6F77319401143018370470A460021DB
:102DF000018B4FF2FF7319404FF6FF7303EA022372
:102E00001943018370470A460021818B4FF6F773FF
:102E100019401143818370470A460021818B4FF28C
:102E2000FF7319404FF6FF7303EA022319438183AE
:102E300070470A460021018B4FF6FB73194011437E
:102E4000018370470A460021018B4FF6FF3319407A
:102E50004FF6FF7303EA02231943018370470A46C2
:102E60000021818B4FF6FB7319401143818370471A
:102E70000A460021818B4FF6FF3319404FF6FF734E
:102E800003EA02231943818370470A460021018B1C
:102E90004FF67F7319401143018370470A460021A2
:102EA000018BC1F30E014FF6FF7303EA02231943AE
:102EB000018370470A460021818B4FF67F731940CA
:102EC0001143818370470A460021818BC1F30E01B3
:102ED0004FF6FF7303EA02231943818370470A46C2
:102EE0000021018C4FF6FD73194011430184704796
:102EF0000A460021018C4FF6F773194011430184F3
:102F000070470A460021018C4FF6DF7319404FF6D7
:102F1000FF7303EA02131943018470470A46002134
:102F2000018C4FF67F7319404FF6FF7303EA0213CB
:102F30001943018470470A460021018C4FF6FF5364
:102F400019404FF6FF7303EA0223194301847047C7
:102F50000A460021018C4FF2FF7319404FF6FF73B0
:102F600003EA02231943018470470A460021018CB9
:102F70004DF6FF7319404FF6FF7303EA023319430E
:102F80000184704730B5002301248C40A3B2048C27
:102F90009C430484048C02FA01F5ADB22C430484F2
:102FA00030BD30B5002304248C40A3B2048C9C4374
:102FB0000484048C02FA01F5ADB22C43048430BDC4
:102FC000828B4FF2FF331A408283828B4FF6FF735E
:102FD00003EA01231A4382837047F0B50C46154675
:102FE000002100220026078C4EF6FF7C07EA0C0722
:102FF0000784818B028C4FF6FF7707EA043640F690
:10300000FF4739404FF6FF7707EA052739434FF668
:10301000FF7707EA0337394345F6FF773A4046F42E
:1030200080573A4381830284F0BD828B4FF6F3735D
:103030001A408283828B0A4382837047F0B50C4624
:103040001546002100220026078C4FF6FF6C07EA88
:103050000C070784818B028C4FF6FF7707EA042662
:103060004FF60C7739404FF6FF7707EA03172F43E7
:1030700039434FF2FF573A4046F480773A43818311
:103080000284F0BD028B4FF2FF331A400283028BA1
:103090004FF6FF7303EA01231A4302837047F0B52A
:1030A0000C461546002100220026078C4FF6EF7CC7
:1030B00007EA0C070784018B028C4FF6FF7707EABB
:1030C000041640F6FF4739404FF6FF7707EA03370B
:1030D00039434FF6FF7703E0000001400004014050
:1030E00007EA052739434FF65F773A4046F0100765
:1030F0003A4301830284F0BD028B4FF6F3731A400A
:103100000283028B0A4302837047F0B50C461546D2
:1031100000210022068C4FF6FE773E400684018B8C
:10312000028C4FF60C7631407E1C06EA03162E43C5
:1031300031434FF6F576324044F0010632430183C5
:103140000284F0BD70B505460C46208850B923892D
:10315000A28861882846FFF7D8FFE1882846FFF754
:10316000CBFF25E0208804280AD12389A288618822
:103170002846FFF794FFE1882846FFF783FF17E012
:10318000208808280AD12389A28861882846FFF769
:1031900055FFE1882846FFF748FF09E02389A28808
:1031A00061882846FFF719FFE1882846FFF708FFE6
:1031B00070BD002101804180012181800021C180FA
:1031C000018170472DE9F04105460C460026012794
:1031D000608808B9022600E00026A088012801D1F5
:1031E000022700E001272088A0B92389A2886188EE
:1031F0002846FFF78AFFE1882846FFF77DFF2389ED
:103200003A4631462846FFF74AFFE1882846FFF74D
:1032100039FF13E02389A28861882846FFF73FFF22
:10322000E1882846FFF72EFF23893A463146284693
:10323000FFF76BFFE1882846FFF75EFFBDE8F081EE
:103240000146486B70470146886B70470146C86B62
:1032500070470146086C70470A884B881A438B8870
:103260001A43CB881A430B891A434B891A438B891B
:103270001A43A0F8442070470021018041808180DA
:10328000C180018141818181704731B1B0F8442012
:1032900042F40042A0F8442005E0B0F84420C2F314
:1032A0000E02A0F84420704721B1828842F0040247
:1032B000828004E082884FF6FB731A408280704758
:1032C00021B1828842F00102828004E082884FF6B8
:1032D000FE731A40828070471AB183890B43838141
:1032E00002E083898B438381704781827047024665
:1032F0000020138A0B400BB1012000E00020704732
:10330000CA430282704730B50246002000230024E1
:10331000158A05EA0103958905EA010413B10CB188
:10332000012000E0002030BDCA430282704741EA1C
:103330000203A0F8483070471AB183890B43838198
:1033400002E083898B438381704721B1828842F0F8
:103350000802828004E082884FF6F7731A40828068
:10336000704701894FF6F8721140018170470A4693
:10337000002101894FF68F73194011430181704775
:1033800030B504460D4629462046FFF7F0FF208958
:1033900040F00700208130BD2DE9F04104460D4684
:1033A00016461F46602D06D13B4601223146204677
:1033B000FFF775FE05E03B46012231462046FFF748
:1033C000A4FE29462046FFF7D2FF208940F00700DF
:1033D0002081BDE8F08130B50C4600210189C9B2D9
:1033E0004FF6FF7505EA032515432543294301815F
:1033F00030BD2DE9F04105460E461746984600249B
:1034000043463A4631462846FFF7E5FF2C894FF6FA
:10341000F870044044F007044FF68F70044044F005
:1034200070042C81BDE8F081F0B504460D461646C7
:103430001F463B46324629462046FFF7CCFF2089EF
:1034400040F480402081F0BD82884FF68F731A408F
:10345000828082880A438280704702894FF6F8731F
:103460001A40028102890A430281704702894FF69D
:103470007F731A40028102890A4302817047F0B5C6
:103480000C4615461E460021002200230189028BAE
:10349000038C4FF6F877394021434FF6FC473A400A
:1034A00040F201173A434FF6DD773B404FF6FF7786
:1034B00007EA06172F433B43018102830384F0BDD3
:1034C00021B1828842F08002828004E082884FF637
:1034D0007F731A4082807047A0F850107047000038
:1034E000016821F0010101600021016041608160FB
:1034F000C160016121214161DB49884204D13D2144
:10350000D94A103A91608CE0D7491831884205D1E8
:103510004FF47461D44A103A916082E0D24930315C
:10352000884205D14FF47411CF4A103A916078E087
:10353000CD494831884205D14FF07461CA4A103AEA
:1035400091606EE0C8496031884204D1C749C64ADB
:10355000103AD16065E0C4497831884204D1C44949
:10356000C14A103AD1605CE0BF499031884204D131
:10357000C049BD4A103AD16053E0BB49A8318842E6
:1035800005D14FF03D51B84A103AD16049E0BA49EF
:10359000884204D13D21B84A083A116041E0B64959
:1035A0001831884205D14FF47461B34A083A11606A
:1035B00037E0B1493031884205D14FF47411AE4A39
:1035C000083A11602DE0AC494831884205D14FF0EE
:1035D0007461A94A083A116023E0A7496031884222
:1035E00004D1A249A44A121F11601AE0A2497831FD
:1035F000884204D19E49A04A121F116011E09E49E1
:103600009031884204D19B499B4A121F116008E007
:103610009949A831884204D14FF03D51964A121F72
:103620001160704710B500220268944B1A40CC68B4
:103630000B6823434C6923438C692343CC692343A0
:103640000C6A23434C6A23438C6A23434C6B234309
:103650008C6B23431A430260426922F00702D1E9CE
:103660000B3423431A4342610B6943604B68836008
:103670008B68C36010BD0021016041608160C16042
:10368000016141618161C161016241628162C16226
:10369000016341638163704721B1026842F0010216
:1036A000026003E0026822F001020260704721B16B
:1036B000026842F40042026003E0026822F4004221
:1036C0000260704721B1026842F02002026003E00C
:1036D000026822F020020260704741607047014694
:1036E000486880B2704722B1036843F40023036046
:1036F00003E0036823F4002303600161704721B1F4
:10370000026842F48022026003E0026822F4802210
:10371000026070470AB1016100E0C1607047014674
:1037200000200A6802F400220AB1012000E0002013
:103730007047014600200A6802F001020AB1012028
:1037400000E000207047014600204A6902F038007E
:10375000704730B503460A4600200024464DAB4270
:1037600002D24149103901E04349103902F00055B5
:103770000DB14C6800E00C68414D2C4004EA020594
:103780000DB1012000E0002030BD02463A4B9A42C4
:1037900002D23548103801E03748103801F00053A4
:1037A0001BB1374B0B40C36002E0354B0B408360CD
:1037B000704710B501F080034BB122B1436943F06B
:1037C0008003436103E0436923F080034361802960
:1037D0000BD02AB1036801F01E042343036004E008
:1037E000036801F01E04A343036010BD70B50246D8
:1037F000002000240025204EB24202D21A4B103B7A
:1038000001E01D4B103B1F4E0E4036B11E2606EA4E
:10381000D124166806EA040502E0566906F0800520
:1038200001F000560EB15C6800E01C68144E344094
:1038300004EA010616B10DB1012000E0002070BDC0
:1038400002460D4B9A4202D20748103801E00A485E
:10385000103801F000531BB1094B0B40C36002E06C
:10386000074B0B4083607047106002403D00002012
:10387000400F002000003D20106402403F801CF0FB
:103880007D0F7D0F3C0F3C0F10B501210802FEF7A4
:1038900006FD00214FF48070FEF701FD10BD30B52C
:1038A0000246002000235068F84C20400D790C6837
:1038B00044EA0524204350609068F54C2040D1E94B
:1038C00003542C438D682C434D7944EA450420432E
:1038D0009060D06A20F470000C7D641EE4B2234333
:1038E00040EA0350D06230BD002101600171417196
:1038F0008160C16001610121017570470021E54AC5
:103900001168E54A1140D0E900231A4383681A433D
:10391000C3681A431143E14AC2F8041370470021F7
:10392000016041608160C160704721B1826842F0EE
:103930000102826003E0826822F001028260704727
:103940000A4600214168D64B194011434160704737
:103950004162826270470A460021416821F01F01DE
:1039600011434160704738B1CA49096841F4000108
:10397000CA4AC2F8041306E0C649096821F40001E6
:10398000C64AC2F80413704738B1C249096841F405
:103990008001C24AC2F8041306E0BE49096821F456
:1039A0008001BE4AC2F804137047F0B504460D46C4
:1039B00000200021092D11DDE068A5F10A0606EBC3
:1039C0004607072606FA07F18843A5F10A0606EB23
:1039D000460603FA06F10843E0600CE0206905EBB7
:1039E0004507072606FA07F1884305EB450603FA63
:1039F00006F108432061072A0FDA606B561E06EBBA
:103A000086071F2606FA07F18843561E06EB860630
:103A100005FA06F10843606322E00D2A0FDA206BF5
:103A2000D61F06EB86071F2606FA07F18843D61F26
:103A300006EB860605FA06F10843206310E0E06A0B
:103A4000A2F10D0606EB86071F2606FA07F188434A
:103A5000A2F10D0606EB860605FA06F10843E062C0
:103A6000F0BD816841F080418160704701460020CF
:103A70008A6802F080420AB1012000E0002070470D
:103A800021B1826842F48062826003E0826822F49D
:103A900080628260704721B1826842F002028260D7
:103AA00003E0826822F002028260704710B50A4685
:103AB00000210023416821F46041531E41EA433153
:103AC000416010BD21B1426842F40062426003E0EF
:103AD000426822F40062426070470146C86C80B2BE
:103AE00070476C48001D0068704721B1826842F43D
:103AF0008072826003E0826822F480728260704784
:103B000021B1826842F40072826003E0826822F48C
:103B100000728260704738B15E49096841F4005113
:103B20005E4AC2F8041306E05A49096821F40051BC
:103B30005A4AC2F804137047F0B5044615460020EF
:103B400000220026092911DDE068A1F10A0707EB30
:103B5000470C072707FA0CF29043A1F10A0707EB7D
:103B6000470703FA07F21043E0600CE0206901EB1D
:103B7000410C072707FA0CF2904301EB410703FAC7
:103B800007F210432061A06BC0F30156EF1C06F151
:103B9000010CA7EB0C0707EB870C1F2707FA0CF2A9
:103BA0009043EF1C06F1010CA7EB0C0707EB87070E
:103BB00001FA07F21043A063F0BD10B50A460021D8
:103BC0000023816B21F44011531E41EA03518163AC
:103BD00010BD08B5002300930090009B0B44009398
:103BE000009B1A6008BD0A460021816821F47021FB
:103BF0001143816070470A460021816821F4401119
:103C0000114381607047816841F480018160704791
:103C1000014600208A6802F480020AB1012000E017
:103C20000020704721B1426842F48062426003E0A4
:103C3000426822F480624260704721B1426842F4D7
:103C40008052426003E0426822F480524260704732
:103C500008B5024600200090009201F12800009B68
:103C6000184400900098006880B208BD10B50B465B
:103C70000021D9B2012404FA01F11AB144680C43BD
:103C8000446002E044688C43446010BDFFFEFFFCCA
:103C9000FDF7FFC004230140E030FCFF002001409D
:103CA000FFFD3FFF0246002013680B400BB10120CF
:103CB00000E000207047CA430260704770B50246BA
:103CC0000020002300240B12556801268E4005EACF
:103CD000060415681D4015B10CB1012000E000205C
:103CE00070BD00220A12D343036070479FED3A0A69
:103CF0005FEA920C53D000BFF0EC010A0B1DB0EC50
:103D0000011A60EEA00A41EE010AF5EEC00AF1EEDA
:103D100010FAC6BFB1EEE01A81ED001A81ED000A7B
:103D2000F0EC010A191DB0EC011A60EEA00A41EE98
:103D3000010AF5EEC00AF1EE10FAC6BFB1EEE01AC4
:103D400083ED001A83ED000AF0EC010A0B1DB0ECC4
:103D5000011A60EEA00A41EE010AF5EEC00AF1EE8A
:103D600010FAC6BFB1EEE01A81ED001A81ED000A2B
:103D7000F0EC010A191DB0EC011A60EEA00A41EE48
:103D8000010AF5EEC00AF1EE10FAC6BFB1EEE01A74
:103D900083ED001A83ED000ABCF1010CACD112F0E6
:103DA000030208BF704700BFF0EC010A0B46B0ECFD
:103DB000011A091D60EEA00A41EE010AF5EEC00AE3
:103DC000F1EE10FAC6BFB1EEE01A83ED001A83EDF2
:103DD000000A521EE8D17047000000002DE9F041B2
:103DE00006462DED028B8C460088736801EB80043B
:103DF0004508274601EB850004EB85025FEA95083C
:103E00007DD000BFD1ED003AD4ED001A91ED012A2A
:103E100091ED024A73EEA16A91ED031A94ED013A15
:103E2000D4ED022AD4ED035A90ED008A90ED017A88
:103E300090ED020A90ED036A92ED005AD2ED014A2C
:103E4000D2ED027AD2ED030A73EEE13AE1EC016AB7
:103E500072EE036A74EEC71AE1EC016A74EE226A2C
:103E600074EE622A37EEC04AE1EC016A71EE256A0F
:103E7000E1EC016A72EE436A31EE652A38EE051A0A
:103E800035EE483AA0EC011A37EE241AA0EC011ADC
:103E900030EE271AA0EC011A36EE201AA0EC011A17
:103EA00030EEC61AB3EC010AF3EC010A63EE804A65
:103EB00066EE805A26EEA05A63EEA03A74EE854A6A
:103EC00075EEE33AE4EC014A63EE204AE4EC013A91
:103ED00061EE803A61EEA00A23EE000A74EEE31A66
:103EE00030EE800AE2EC011AA2EC010AB3EC010AFE
:103EF000F3EC010A62EE803A22EE203A00E01FE085
:103F000022EE002A62EEA01A73EE832AB8F10108AD
:103F100072EE611AE4EC012A24EE202AE4EC011A84
:103F200061EE001A61EE200A24EE000A32EE611AF8
:103F300030EE800AA2EC011AA2EC010A7FF462AF13
:103F4000294602236046726800F0B4FA7268294676
:103F5000BDEC028B3846BDE8F041022300F0AABA5E
:103F60002DE9F04F07462DED048B85B000880391B5
:103F70004FEA500801EB880202EB880000EB88064C
:103F80000096CDE901024FEA580AD7F80490CDF81F
:103F900010A0D1ED000A90ED000A91ED011A92ED0A
:103FA000012A70EE802A70EEC00A90ED010AD6ED6B
:103FB000013A151F31EE003A71EE401A32EE200A36
:103FC00096ED001A73EE425A70EEC20A30EE634A62
:103FD00092ED000A031F75EEE35A71EEC04A70EECF
:103FE000211A70EEA30A341F34EE815A72EEC04AD1
:103FF00030EE220A71EEC11A04EB880C74EEC14A4D
:1040000030EE010A09F1080809F1100BA1EC010AD0
:1040100092ED010A96ED011A09F1180930EE030A32
:1040200030EE010AA1EC010AA2EC014AA2EC015A0D
:10403000E0EC014AE0EC015AE6EC010AE6EC011A78
:10404000DDF810A0AAF1020A5FEA5A0A00F0F8802F
:1040500091ED000AD0ED000AD2ED011AD6ED014A29
:1040600030EE202A30EE601A91ED010AD0ED010AFF
:1040700070EE203A30EE604A31EE810AD6ED000A49
:1040800031EE611A30EE645A92ED000A74EE402A65
:1040900072EEA05A72EE402A32EEE03A73EEE12A56
:1040A00071EE241A30EE041A30EE020A72EEE42A9F
:1040B00031EE601A30EE200AA1EC010A92ED010AFD
:1040C000D6ED010A30EE230A30EE200AA1EC010AF7
:1040D00055ED010A14ED010AD4ED003A53ED014A01
:1040E00030EE807A30EEC02A95ED000A5CED018A50
:1040F00093ED008A70EE230A30EE630ADCED007A5D
:1041000070EE643A38EE679A33EEA86A77EE643A56
:1041100078EEE44A79EE026A39EE422A33EEE84A52
:1041200074EEC04A38EE200A70EEC83A30EE270A24
:1041300073EEE73A85ED000A13ED010A5CED010A22
:1041400030EE070A30EE200A05ED010A083DB8EC12
:10415000010AF8EC010A25EE007A65EEA07A65EE18
:10416000805A25EE205A37EE277A35EEC55AA2EC52
:10417000017AA2EC015A26EE205A66EE805A66EECB
:10418000A00A26EE000A35EE655A30EE800A83ED6D
:10419000005A03ED010ADBED000A9BED010A083B22
:1041A00023EE205A62EE805A62EEA02A23EE003AF5
:1041B0000BF1100B35EE255A72EEC32AA0EC015A12
:1041C00023EEE03AE0EC012A64EE002A64EE200AD5
:1041D00023EE800A73EE622A30EE600AC4ED002AF4
:1041E00004ED010A99ED000AD9ED010A083C61EEDF
:1041F000802A21EE203A61EE003A21EEA01A09F160
:10420000180972EE831ABAF1010A33EEC11AE6EC0C
:10421000011A64EEA01AA6EC011A22EE001A62EE50
:10422000200A24EE800A31EEC11A30EE800A8CEDAD
:10423000001A0CED010AACF1080C7FF409AF00BFC5
:10424000D1ED000A90ED000A91ED011AD2ED015A6C
:1042500030EE802A70EEC00A90ED010A96ED015A08
:10426000042371EE002A71EE404A35EEA00A92ED69
:10427000001A72EEE53A70EEE50A70EE451A34EE79
:10428000C13A96ED000A73EEC53A30EE855A33EE28
:10429000004A32EE413A71EE240A31EE021A33EE50
:1042A000403A70EEC00A31EE000A81ED000A92ED4C
:1042B000010A96ED011A30EE220A30EE010A81ED74
:1042C000010A98ED000A98ED011A21EE802A64EEA9
:1042D000012A24EE000A21EE811A72EE221A30EE33
:1042E000410AC2ED001A82ED010A9BED000A9BED26
:1042F000011A63EE001A23EE812A23EE800A23EED0
:10430000011A71EE821A30EE410AC0ED001A80EDFA
:10431000010A99ED010A99ED001A60EE801A25EE66
:10432000012A60EE810A25EE000A32EE211A30EEF3
:10433000C00A86ED001A86ED010ADDE903017A68FC
:1043400000F0B8F87A6804230499029800F0B2F8F3
:104350007A6804230499019800F0ACF87A6804990B
:10436000009805B00423BDEC048BBDE8F04F00F0CD
:10437000A1B82DE9F0410488984617460D46064637
:10438000012A21D1281DFCB1A0F1080114F0010F70
:1043900006D091ED020AB1EE400A81ED020A083121
:1043A0005FEA540C10D000BF91ED020AB1EE400A52
:1043B00081ED020A91ED040AB1EE400A81ED040A92
:1043C0001031BCF1010CEFD1B4F5807F1BD008DCBB
:1043D000102C13D0202C16D0402C19D0802C1DD19D
:1043E0000CE0B4F5007F13D0B4F5806F06D0B4F5BF
:1043F000006F08D0B4F5805F10D109E0294630463F
:10440000FFF7ECFC0AE029463046FFF7A9FD05E07E
:10441000214601232846726800F04CF8B8F1000FDD
:1044200004D0B1892846B268FBF7E8FE012F18BF17
:10443000BDE8F08100EE104AB7EE001A002CF8EE4D
:10444000400A81EE200A08BFBDE8F081A5F108000E
:1044500014F0010F0CD0D0ED020A60EE800AC0ED1E
:10446000020AD0ED030A60EEC00AC0ED030A08306C
:10447000610808BFBDE8F081D0ED020A60EE800A55
:10448000C0ED020AD0ED030A60EEC00AC0ED030AD7
:10449000D0ED040A60EE800AC0ED040AD0ED050AF2
:1044A00060EEC00AC0ED050A1030491EE4D1BDE837
:1044B000F08100002DE9FF4F2DED108B82B09FEDB4
:1044C000FEFA0B461C46DB084FF0000C0CEB030514
:1044D00005EB030808EB030909EB030606EB030AE7
:1044E00000EBCC0700EBC60697ED001AD6ED000AEC
:1044F0000AEB030B00EBC50500EBCA0A31EE200AFC
:1045000071EE601A95ED002ADAED000A0BEB030E4E
:1045100000EBC80832EE201A00EBCB0B32EE602A1B
:10452000D8ED002ADBED000A00EBC90900EBCE0E46
:1045300099ED003A9EED004A72EEA03A72EEE02A42
:1045400073EE040A33EE443A70EE636A70EE233A77
:1045500031EE600A71EE200A33EEA01A73EEE00A23
:1045600087ED001AC6ED000A97ED011AD6ED010A93
:10457000D5ED013A98ED014A31EE206A71EE600AFC
:104580009AED011A99ED015A73EE814A73EEC13A20
:104590009BED011A34EE017A34EE411A9EED014A88
:1045A00075EE045A35EE444A36EE475A36EE076A3F
:1045B00034EEE57A74EEA54A76EE245A76EE644A35
:1045C000C7ED015AC6ED014A76EE874AC8ED004AAA
:1045D00076EEC74ACBED004A75EE404A35EE000A4A
:1045E000C8ED014A8BED010A32EE430A32EE032A8E
:1045F00020EE0F0A62EE0F4A33EEC42AA4448C4523
:1046000022EE0F3A33EE842A30EEC34A62EE0F3ABE
:1046100030EE833A31EEC02A31EE800A71EE630A41
:1046200031EE231A72EEE41A72EEA42A70EE013A09
:1046300030EE410AC5ED003A8EED000A32EE200A56
:104640008AED000A32EE600A89ED000A33EE620A52
:1046500085ED010A33EE220A8EED010A34EE610A7D
:104660008AED010A34EE210A89ED010AFFF42EAF2A
:10467000082B3FBF02B0BDEC108B04B0BDE8F08F3B
:104680004FF0000CCDF804C04FF0010CCDF800C085
:10469000DDF804C0159DAC444FEA8C0505EB0C0712
:1046A000CDF804C007EB0C094FEA4C0808EB0C06E8
:1046B00009EB0C0A02EBCC0C02EBC80802EBC606B5
:1046C00002EBC50502EBC70702EBC90902EBCA0AF8
:1046D0009CED00DA9CED018AD8ED00CA96ED00CA87
:1046E000D5ED00BA97ED00BAD9ED00AADAED008A4F
:1046F000D8ED017A96ED01AA95ED017AD7ED016A20
:1047000099ED016ADAED019ADDF800C00CEB0307C0
:10471000FD1805EB030A0AEB030808EB030606EB9A
:10472000030B00EBCC0900EBC808D9ED000A98EDAB
:10473000000A00EBC70700EBC606D7ED001A96ED9E
:10474000001A70EE803A0BEB030E70EEC00A31EEE9
:10475000810A00EBC50500EBCB0B31EEC11AD5ED9C
:10476000001A9BED002A00EBCA0A00EBCE0E31EED8
:10477000824A71EEC21A9AED002ADEED002A32EE6C
:10478000223A32EE622A73EEC42A73EE843A30EE95
:10479000435A30EE030A33EE803A73EEC0DA89ED05
:1047A000003A99ED010A98ED013AD7ED013A95EDFD
:1047B000014A70EE03EA30EE433A96ED010A9AEDB3
:1047C00001EADEED014A33EE809A73EEC03A9BEDCA
:1047D000010A74EE005A34EE404A3EEE240A7EEEA0
:1047E000644A3EEEE5EA7EEEA55A79EE40EA39EEFD
:1047F000009A32EEAE0A72EEEE2A75EE89EA35EED6
:10480000C99A7EEE455AC9ED01EA3EEE055A2BEEF5
:10481000ADEA67EE09EA2BEE899A67EE2DDA3EEEF5
:104820002EEA39EE6D9A88ED00EA67EEA5DA88ED9A
:10483000019A2CEE809A6CEEA55A27EE800A39EE8A
:104840002D9A35EEC00A85ED009A66EE055A85ED83
:10485000010A2AEEA20A2AEE855A66EE222A30EED4
:10486000250A8BED000A35EE620A73EEA42A8BED61
:10487000010A31EE420A31EE021A33EEE42A62EE08
:104880008F3A20EE0F0A21EE0F1A22EE0F2A70EE59
:10489000C02A30EE800A71EEC10A71EE811A33EE41
:1048A000421A33EE022A34EE633A34EE234A70EEB3
:1048B000043A30EE444A01E0F304353F72EE834A95
:1048C00072EEC32A32EE613A32EE210A71EE601ABC
:1048D00071EE200A2DEE232A28EE031A2DEE033A5C
:1048E00068EE233AA44432EE011A28EE842A8C455D
:1048F00087ED001A33EE631A29EE843A87ED011A28
:1049000029EE801A28EE800A32EE011A30EE430AB0
:1049100026EEA42A8EED001A8EED010A2BEE240A53
:1049200026EEA11A6BEE211A30EE010A2CEE221AA5
:1049300086ED000A31EEC20A6AEE221A86ED010AFD
:104940002AEE200A6CEE200A31EE000A8AED000AF7
:1049500030EEE10A8AED010AFFF4D8AEDDF800C0BE
:104960000CF1010CCDF800C063453FF691AEDDF8C7
:1049700054C04FF6FF7404EACC0CCDF854C0072B9A
:104980003FF6A0AD02B0BDEC108B04B0BDE8F08FD7
:10499000704700000FB4044910B503AA029800F054
:1049A00015F810BC5DF814FB7C00002070477047C0
:1049B0007047704710B500F01BF8006810BD10B5C7
:1049C000044600F015F8046010BD0000074B70B5F8
:1049D0000D467B4400F015F80446284600F024F804
:1049E00010B14FF0FF3070BD204670BDBDCEFFFF4F
:1049F00000487047D03A002001694A1C02610878DB
:104A0000704700B58FB0CDE901310021059105490E
:104A10007944CDE903101146684600F032F80FB032
:104A200000BD0000E5FFFFFF007B00F08000704745
:104A300000487047D03A00207546FFF7F9FFAE46B0
:104A400005006946534620F00700854618B020B59A
:104A5000FCF7D0FFBDE820404FF000064FF0000704
:104A60004FF000084FF0000B21F00701AC46ACE816
:104A7000C009ACE8C009ACE8C009ACE8C0098D4683
:104A800070472DE9F04106460024D6E90170F5682B
:104A90008046304603E04146B847641C3046A8478C
:104AA0000028F8D12046BDE8F08110B50446AFF3E8
:104AB00000802046BDE81040FBF7E4BB00B52DEDBB
:104AC000048BB0EE409AF0EE609A83B051EC190B73
:104AD00000F0B8F841EC180B18EE100A18EE901A16
:104AE0008DED008B002818BF0120084320F0004006
:104AF000C0F17F6000F1E040C00F14D019EE101A31
:104B000019EE900A8DED009B002918BF0121084382
:104B100020F00040C0F17F6000F1E040C00F04BF12
:104B20000120FFF74CFFB0EE480A03B0F0EE680A30
:104B3000BDEC048B00BD000021F00042A2F16052E8
:104B4000B2F5801F01F0004328BFD2F17F6C0BD972
:104B50005FEA001C43EAC20242EB507018BF704784
:104B600028BF20F001007047B2F5801FBCBF184677
:104B700070474FEA410C1CF5001F02D2084600F0B6
:104B8000A3B970B500F009F800000089FFF7F6BF7F
:104B90004FF00040A0F5800070470EF1020E2EF09D
:104BA000030E5EF8046B364205D4012A43EB03057D
:104BB00015F5001F12D8012841EB010C1CF5001F50
:104BC0000CD80ED14FEAD17C15F5001F0CEB4C0C24
:104BD0000CF1020C08BF4CEBD37C04E04FF0080C46
:104BE00001E04FEAD37C0CEB4C0526FA05F606F003
:104BF0000706B6F1040C06D20EEB860CBDE8704039
:104C00004CF0010C6047DFE80CF0090B02024FF09A
:104C100000414FF00000A1F5002170BD194610467B
:104C2000012851EB010418BFD4F5001484BF002003
:104C300001F0004170BD0808A0F500114FEA3101F4
:104C4000704700002DE9F04101F5801CBCF5001F04
:104C5000C0F2A9804FEA115C21EA0C510CF1FD0C65
:104C600041F480115FEA5C0C0CF5C07C01D340007C
:104C7000494130A4890241EA905187028E0E0A0C04
:104C8000A45D04FB04F602FB06F6C6F14046A4FB55
:104C90000662F60D46EA422606FB06F4A4FB012353
:104CA0005242C3F1404338BF5B1EA6FB02420024C0
:104CB000E6FB0324D20B42EA4446A6FB0623A1FBF3
:104CC00002E2A3FB07E4E3FB61426442C2F1404E0F
:104CD00038BFAEF1010EA6FB04234FF00002E6FB45
:104CE0000E32A2FB03463400E2FB6264A1FB06E63F
:104CF000A4FB07E8E4FB61687642C8F1405838BF7E
:104D0000A8F10108A2FB06E4A3FB08E5E2FB685456
:104D1000A1FB05E6A7FB04E8E1FB648618F120058A
:104D200056F10006A809A8F11B08B10908F03F08D0
:104D3000B8F10A0F40EA86601CD901EB0C51BDE8BE
:104D4000F08100BFFCF5EEE8E2DDD8D3CFCBC7C3DE
:104D5000C0BDB9B6B4B1AEACA9A7A5A3A19F9D9B98
:104D60009A9896959392908F8D8C8B89888786855B
:104D700084838281A0FB006800FB01F208EB4208FB
:104D8000B8EB872807D5341858EB0104D5D5401C5B
:104D900051F10001D1E7341A78EB0104CDD4401E63
:104DA00071F10001C9E75FEA4C0C5FEA9C5C0DD130
:104DB00005D34FF0000001F00041BDE8F081BDE8EF
:104DC000F04170B5FFF7E9FE6DDBFFBEBDE8F041D5
:104DD0004FF00000004970470000F87F43004FEAA1
:104DE000D30C4FEA3C0C43401FBF40070CF160510D
:104DF00013F0FE4F70471CF0006F03D100200CF041
:104E0000004170470CF0004343EA507010B540EA8F
:104E1000CC0000F00EF800BF000000924FEA000145
:104E2000FFF709BF4FF000414FF00000A1F500214E
:104E300070470EF1020E2EF0030E5EF8044B244272
:104E400004D44FEA4102B2F17F4F11D84FEA400338
:104E5000B3F17F4F0CD80ED14FEAD07CB2F17F4F27
:104E60000CEB4C0C0CF1020C08BF4CEBD17C04E0B9
:104E70004FF0080C01E04FEAD17C0CEB4C0324FA14
:104E800003F404F00704B4F1040C06D20EEB840C16
:104E9000BDE810404CF0010C6047DFE80CF007085B
:104EA00002024FF00040A0F5800010BD084642000D
:104EB00018BFD2F1807288BF00F0004010BD4FF0E3
:104EC0004070E1EE100A7047FF2141EAD050C00562
:104ED000704700000000000000000000BD3786356C
:104EE000BD3706369C534936ACC5A736BD370637A5
:104EF000ACC527378BE16A37399B8E372829B03705
:104F0000931ADA37FF050238B5FE163828293038EB
:104F10009C5349380F7E623840DA7F3818B4903895
:104F20000F7BA1380742B238FF08C338B401D83824
:104F30008BE1EA3840DAFF387B690A3945F21539E6
:104F40007F87223949102E3983A53A392C474839B1
:104F5000D5E855397E8A6339973872395873803964
:104F60009C508839E02D9039240B9839A06EA039D7
:104F70005358A939CFBBB139BB2BBB396E15C439D6
:104F80005985CD397C7BD7399F71E139C367EB39BE
:104F90001DE4F5393C30003A85B1053ACF320B3A81
:104FA00018B4103A7D78163AFE7F1C3A6344223AD0
:104FB000008F283A81962E3A1EE1343AD66E3B3A5B
:104FC0008FFC413A488A483A1D5B4F3AF12B563ADA
:104FD000E23F5D3AD253643AC3676B3ACFBE723A4E
:104FE000F7587A3A90F9803AA4C6843A46B5883A96
:104FF000E8A38C3A8A92903ABAA2943A78D4983A32
:1050000036069D3AF437A13A3F8BA53A8BDEA93A92
:10501000D731AE3AB1A6B23A193DB73A80D3BB3ACE
:10502000E869C03ADE21C53AD3D9C93A57B3CE3A76
:10503000DA8CD33AEC87D83AFD82DD3A0F7EE23A39
:10504000AE9AE73A4EB7EC3A7BF5F13AA933F73A24
:105050006493FC3A90F9003B6DA9033B126A063B4E
:105060007E3B093BE90C0C3B55DE0E3B87C0113BF8
:10507000BAA2143BB395173BAD881A3BA67B1D3BE8
:10508000677F203BEE93233B76A8263BFDBC293B64
:105090004CE22C3B9A07303BB03D333BC573363B6B
:1050A000DAA9393BB7F03C3B5A48403BFD9F433BB4
:1050B000A1F7463B0B604A3B3CD94D3BA741513BD6
:1050C0009FCB543BD044583BC8CE5B3B88695F3B89
:1050D0004704633B069F663B8C4A6A3BD9066E3B9E
:1050E00026C3713B737F753B884C793B9C197D3B94
:1050F000BB7B803BA96A823BFA61843B4B59863B70
:105100009C50883B50508A3B68588C3B80608E3B5B
:105110009868903B1479923BF391943BD2AA963BCA
:10512000B1C3983BF3E49A3B36069D3BDC2F9F3B93
:105130008159A13B2783A33B94BDA53B9EEFA73B91
:105140000B2AAA3BDB6CAC3BABAFAE3B7CF2B03B7B
:10515000B03DB33B4791B53BDEE4B73B7638BA3B55
:105160007094BC3B6BF0BE3BCA54C13B8BC1C33B8C
:10517000EA25C63B0F9BC83B3410CB3B5985CD3B42
:10518000E202D03B6B80D23B5706D53B438CD73BEA
:105190003012DA3BE3A8DC3B3337DF3BE6CDE13BC3
:1051A000FD6CE43B130CE73B8DB3E93B085BEC3B48
:1051B000E50AEF3BC3BAF13BA16AF43BE222F73BBD
:1051C00086E3F93B2BA4FC3B336DFF3B1E1B013CEC
:1051D000A27F023C57E8033C3F55053C27C2063CF2
:1051E0004033083C59A4093C72150B3CBD8A0C3C69
:1051F0003A040E3CB77D0F3C65FB103C1479123C21
:10520000F4FA133CD47C153CB5FE163CC784183C1C
:105210000A0F1A3C4E991B3CC4271D3C39B61E3C54
:10522000E048203C87DB213C6072233C3909253C67
:1052300044A4263C4F3F283C8BDE293CC87D2B3CB8
:1052400036212D3CD6C82E3C7670303C1618323CA8
:10525000E7C3333CB96F353CBC1F373CF2D3383C15
:1052600027883A3C8E403C3CF4F83D3C5BB13F3CE7
:105270002672413CBE2E433CBAF3443C85B4463CC6
:10528000B37D483CAF424A3C0E104C3C6EDD4D3C79
:10529000CEAA4F3C5F7C513C2252533CE527553C03
:1052A000A8FD563CCFDB583CC4B55A3C1C985C3C2E
:1052B00042765E3CCD5C603C5743623CE129643CF5
:1052C0009C14663C8A03683C78F2693C65E16B3C5F
:1052D000B6D86D3CD5CB6F3C58C7713CA9BE733C6A
:1052E0005EBE753C12BE773CC7BD793CADC17B3C10
:1052F000C5C97D3CDDD17F3C13EF803C38F5813C56
:1053000076FD823CCC07843C2312853C7A1C863C8B
:10531000022B873C7237883C1348893CB4588A3C3E
:1053200055698B3C0F7C8C3CE2908D3CB5A58E3C46
:10533000A1BC8F3C8DD3903C92EC913C9605933C64
:10534000B420943CEA3D953C215B963C707A973CB6
:10535000D89B983C40BD993CA9DE9A3C2A029C3CD3
:10536000C4279D3C5E4D9E3C10759F3CDC9EA03C3E
:10537000A8C8A13C8CF4A23C7120A43C6E4EA53C74
:105380006C7CA63C82ACA73CB1DEA83CE010AA3CF9
:105390002845AB3C897BAC3CEAB1AD3C64EAAE3C11
:1053A000DD22B03C705DB13C0398B23CAED4B33C5E
:1053B0007313B53C3752B63C1493B73C0AD6B83C8D
:1053C0000119BA3C0F5EBB3C1EA3BC3C46EABD3C87
:1053D0008733BF3CC87CC03C21C8C13C9415C33C4A
:1053E0000663C43C92B2C53C1D02C73CC153C83CD5
:1053F0007EA7C93C3BFBCA3C1151CC3CE7A6CD3C47
:10540000D6FECE3CDE58D03CE6B2D13C060FD33CB3
:10541000406DD43C79CBD53CCB2BD73C378ED83C98
:10542000A2F0D93C2655DB3CC3BBDC3C6022DE3C11
:10543000158BDF3CCBF3E03C9A5EE23C81CBE33C56
:105440006938E53C69A7E63C8318E83C9C89E93C5F
:10545000CEFCEA3C1972EC3C64E7ED3CC85EEF3CE4
:1054600045D8F03CC251F23C57CDF33CED48F53CF9
:10547000B4C8F63C6346F83C43C8F93C234AFB3CBD
:105480001CCEFC3C2E54FE3C40DAFF3C36B1003DC5
:105490004B75013D793B023D9B00033DD6C7033D63
:1054A000118F043D5857053DAB20063DFFE9063DF1
:1054B0005FB4073DCC7F083D384B093DB1170A3D2D
:1054C00036E50A3DBCB20B3D4D810C3DEC500D3D27
:1054D0008A200E3D41F20E3DECC20F3DAF95103DCE
:1054E0007368113D433C123D1F11133DFBE5133D15
:1054F000E4BB143DDA92153DCF69163DD141173D0D
:10550000DF1A183DEDF3183D14CF193D2EA91A3DB1
:1055100062851B3D95611C3DD53E1D3D211D1E3DF7
:105520007AFC1E3DD3DB1F3D38BC203D9D9C213DB8
:105530000F7E223D8D60233D1844243DAE28253D3D
:10554000450D263DE9F2263D8CD8273D48C0283D33
:1055500005A8293DCD902A3D96792B3D6B632C3DC6
:105560004D4E2D3D3B3A2E3D29262F3D2F14303DEB
:105570003602313D3DF0313D5DE0323D7DD0333D81
:10558000A9C1343DD5B2353D0DA5363D5298373DC4
:10559000A48C383D0282393D60773A3DCA6D3B3D6F
:1055A00041653C3DC45D3D3D47563E3DD74F3F3D87
:1055B000734A403D0F45413DC441423D793E433D24
:1055C0002E3B443DFC39453DC938463DA438473D56
:1055D0008A39483D7E3B493D713D4A3D70404B3DD7
:1055E0007C444C3D95494D3DAD4E4E3DDE554F3DC5
:1055F000105D503D4164513D8B6D523DD576533D1C
:105600002C81543D8F8C553DFE98563D6EA5573DDF
:10561000EAB2583D72C1593D07D15A3DA8E15B3D00
:1056200049F25C3DF7035E3DB1165F3D6B29603D7D
:105630003E3E613D1153623DF168633DDC7F643D58
:10564000D597653DCDAF663DD2C8673DE3E2683D85
:1056500000FE693D2A1A6B3D54366C3D8B536D3DFF
:10566000CE716E3D1D916F3D6CB0703DD4D1713DDA
:105670003DF3723DB115743D3239753DC05D763DE7
:105680004D82773DE7A7783D8ECE793D40F67A3D55
:10569000001F7C3DBF477D3D97727E3D6F9D7F3DE6
:1056A000AA64803D9CFA803D9B91813D9928823D72
:1056B000A5C0823DB058833DBBF0833DD289843D77
:1056C0007023853D0EBD853D3257863DDCF1863D1C
:1056D0000D8D873DC328883D7AC4883D3D61893D55
:1056E00000FE893D4A9B8A3D19398B3DE9D68B3DA9
:1056F000C5758C3DA1148D3D03B48D3DEB538E3D9E
:105700005AF48E3D4F958F3DCA36903D45D8903D19
:10571000467A913DCE1C923DDBBF923D6F63933D37
:105720008907943DA4AB943DCA50953DF1F5953D54
:105730009D9B963DD141973D8AE8973D438F983D8B
:105740000937993DCEDE993D1A879A3DEC2F9B3D56
:1057500045D99B3D23839C3D882D9D3DEDD79D3DA7
:105760005E839E3DCF2E9F3DC7DA9F3D4487A03D7F
:105770004834A13DD2E1A13DE28FA23DF33DA33DDE
:1057800089ECA33D2C9CA43DCF4BA53DF8FBA53D4A
:10579000A8ACA63D575DA73D130FA83D55C1A83D38
:1057A0009773A93D5F26AA3DAED9AA3D828DAB3D38
:1057B000DD41AC3DBEF6AC3D26ACAD3D8D61AE3DB0
:1057C0000118AF3D74CEAF3DF585B03D753DB13D9F
:1057D0007BF5B13D08AEB23D1B67B33D2E20B43D15
:1057E0004DDAB43D6C94B53D984FB63DC40AB73D13
:1057F00076C6B73DAE82B83D6C3FB93DB1FCB93D10
:105800007CBABA3DCD78BB3D1E37BC3D7BF6BC3D76
:10581000D9B5BD3D4276BE3DAC36BF3D9DF7BF3DDF
:1058200013B9C03D0F7BC13D923DC23D9B00C33DBE
:105830002AC4C33DBA87C43D554CC53DF110C63D91
:1058400099D6C63D419CC73D6F62C83D2429C93DDC
:105850005FF0C93D20B8CA3D6780CB3D3449CC3D9F
:105860008812CD3DDBDBCD3D3BA6CE3D9B70CF3DD1
:10587000083CD03D7407D13D67D3D13DE09FD23D78
:10588000656DD33DEB3AD43DF608D53D02D7D53D05
:105890001AA6D63DB875D73DDD45D83D0116D93D90
:1058A00032E7D93D63B8DA3DA08ADB3DDD5CDC3D03
:1058B0002730DD3D7103DE3D41D7DE3D97ABDF3D57
:1058C0007380E03DD655E13DBF2BE23D2E02E33D26
:1058D00023D9E33D18B0E43D1A88E53DA260E63DDA
:1058E0002A39E73DBE12E83D53ECE83DF3C6E93DF9
:1058F00094A1EA3DBB7CEB3DEF58EC3D2235ED3DFC
:10590000DC11EE3D1CEFEE3DE2CCEF3D2EABF03D69
:10591000018AF13D5969F23D3849F33D9E29F43D34
:10592000030AF53D74EBF53D6CCDF63D64AFF73DF4
:105930006892F83DF375F93D7D59FA3D143EFB3D03
:10594000AB22FC3DC807FD3DF2EDFD3D1BD4FE3D05
:10595000CBBAFF3D0151003EDFC4003E4339013E5A
:10596000A7AD013E4F22023E3997023E670C033E2F
:10597000D881033E8CF7033E406D043E7AE3043E3B
:10598000F759053EB7D0053E7847063EBEBE063EF7
:105990004836073ED1AD073EE125083E349E083E1D
:1059A0008716093E608F093E3A080A3E99810A3EF1
:1059B000F8FA0A3E9B740B3EC4EE0B3EEC680C3EBC
:1059C00058E30C3E075E0D3E3CD90D3E71540E3E31
:1059D000EACF0E3EA54B0F3EA4C70F3EE543103E57
:1059E000ADC0103E753D113E80BA113ECE37123E1D
:1059F0005FB5123EF032133E07B1133E622F143EE4
:105A000000AE143EE02C153E04AC153E6B2B163E4A
:105A1000D2AA163EBF2A173EEFAA173E632B183EA6
:105A2000D6AB183ECF2C193E0CAE193E492F1A3E6C
:105A30000CB11A3E12331B3E18B51B3EA4371C3E58
:105A400030BA1C3E433D1D3E55C01D3EEE431E3E3A
:105A500086C71E3EA54B1F3EC4CF1F3E2654203E88
:105A60000ED9203EF65D213E22E3213ED368223E40
:105A700085EE223E7974233EF4FA233E6F81243E64
:105A80002D08253E2E8F253EB516263E3D9E263EF0
:105A90000726273E14AE273E6536283EF9BE283E2F
:105AA000D047293EEAD0293E8A5A2A3E2AE42A3E95
:105AB0000D6E2B3E34F82B3E9D822C3E4A0D2D3E22
:105AC00039982D3E29232E3E9FAE2E3E583A2F3E2A
:105AD00054C62F3E9352303E16DF303EDB6B313ED4
